:060000000A128A11E82F2C
:100F40004E343F3406345B344F3466346D347C3475
:100F500007347F346F347E088A007F0882000A12CB
:100F60008A11AB270A128A118000840A04087D06C0
:100F700003190034FF0A0319FE0AAF2F8316031367
:100F8000860187010730F1000830F0008312031357
:100F900007148710270886000430F3003D30F20064
:100FA000F20BD02FF30BD02FD52F831203138714FE
:100FB0000710280886000430F3003D30F200F20BE1
:100FC000DF2FF30BDF2FE42FC22F0A128A11002824
:100FD00083132A30FD000730FE00A130FF002030CF
:100FE00084000A128A11AF270A128A110A128A1182
:100FF000A0270A128A11F40083010A128A11BE2F57
:02400E00B93FB8
:00000001FF
